{
  "_format": "hh-sol-artifact-1",
  "contractName": "Staking",
  "sourceName": "contracts/Staking.sol",
  "abi": [
    {
      "inputs": [
        {
          "internalType": "address",
          "name": "_token",
          "type": "address"
        }
      ],
      "stateMutability": "nonpayable",
      "type": "constructor"
    },
    {
      "inputs": [],
      "name": "AccessControlBadConfirmation",
      "type": "error"
    },
    {
      "inputs": [
        {
          "internalType": "address",
          "name": "account",
          "type": "address"
        },
        {
          "internalType": "bytes32",
          "name": "neededRole",
          "type": "bytes32"
        }
      ],
      "name": "AccessControlUnauthorizedAccount",
      "type": "error"
    },
    {
      "inputs": [],
      "name": "ReentrancyGuardReentrantCall",
      "type": "error"
    },
    {
      "anonymous": false,
      "inputs": [
        {
          "indexed": true,
          "internalType": "address",
          "name": "user",
          "type": "address"
        },
        {
          "indexed": false,
          "internalType": "uint256",
          "name": "amount",
          "type": "uint256"
        }
      ],
      "name": "RewardsClaimed",
      "type": "event"
    },
    {
      "anonymous": false,
      "inputs": [
        {
          "indexed": true,
          "internalType": "bytes32",
          "name": "role",
          "type": "bytes32"
        },
        {
          "indexed": true,
          "internalType": "bytes32",
          "name": "previousAdminRole",
          "type": "bytes32"
        },
        {
          "indexed": true,
          "internalType": "bytes32",
          "name": "newAdminRole",
          "type": "bytes32"
        }
      ],
      "name": "RoleAdminChanged",
      "type": "event"
    },
    {
      "anonymous": false,
      "inputs": [
        {
          "indexed": true,
          "internalType": "bytes32",
          "name": "role",
          "type": "bytes32"
        },
        {
          "indexed": true,
          "internalType": "address",
          "name": "account",
          "type": "address"
        },
        {
          "indexed": true,
          "internalType": "address",
          "name": "sender",
          "type": "address"
        }
      ],
      "name": "RoleGranted",
      "type": "event"
    },
    {
      "anonymous": false,
      "inputs": [
        {
          "indexed": true,
          "internalType": "bytes32",
          "name": "role",
          "type": "bytes32"
        },
        {
          "indexed": true,
          "internalType": "address",
          "name": "account",
          "type": "address"
        },
        {
          "indexed": true,
          "internalType": "address",
          "name": "sender",
          "type": "address"
        }
      ],
      "name": "RoleRevoked",
      "type": "event"
    },
    {
      "anonymous": false,
      "inputs": [
        {
          "indexed": true,
          "internalType": "address",
          "name": "user",
          "type": "address"
        },
        {
          "indexed": false,
          "internalType": "uint256",
          "name": "amount",
          "type": "uint256"
        }
      ],
      "name": "Staked",
      "type": "event"
    },
    {
      "anonymous": false,
      "inputs": [
        {
          "indexed": true,
          "internalType": "address",
          "name": "user",
          "type": "address"
        },
        {
          "indexed": false,
          "internalType": "uint256",
          "name": "amount",
          "type": "uint256"
        }
      ],
      "name": "Withdrawn",
      "type": "event"
    },
    {
      "inputs": [],
      "name": "DEFAULT_ADMIN_ROLE",
      "outputs": [
        {
          "internalType": "bytes32",
          "name": "",
          "type": "bytes32"
        }
      ],
      "stateMutability": "view",
      "type": "function"
    },
    {
      "inputs": [],
      "name": "REWARD_FUNDER_ROLE",
      "outputs": [
        {
          "internalType": "bytes32",
          "name": "",
          "type": "bytes32"
        }
      ],
      "stateMutability": "view",
      "type": "function"
    },
    {
      "inputs": [],
      "name": "REWARD_RATE",
      "outputs": [
        {
          "internalType": "uint256",
          "name": "",
          "type": "uint256"
        }
      ],
      "stateMutability": "view",
      "type": "function"
    },
    {
      "inputs": [],
      "name": "claimRewards",
      "outputs": [],
      "stateMutability": "nonpayable",
      "type": "function"
    },
    {
      "inputs": [
        {
          "internalType": "uint256",
          "name": "amount",
          "type": "uint256"
        }
      ],
      "name": "fundRewards",
      "outputs": [],
      "stateMutability": "nonpayable",
      "type": "function"
    },
    {
      "inputs": [
        {
          "internalType": "address",
          "name": "user",
          "type": "address"
        }
      ],
      "name": "getPendingRewards",
      "outputs": [
        {
          "internalType": "uint256",
          "name": "",
          "type": "uint256"
        }
      ],
      "stateMutability": "view",
      "type": "function"
    },
    {
      "inputs": [
        {
          "internalType": "bytes32",
          "name": "role",
          "type": "bytes32"
        }
      ],
      "name": "getRoleAdmin",
      "outputs": [
        {
          "internalType": "bytes32",
          "name": "",
          "type": "bytes32"
        }
      ],
      "stateMutability": "view",
      "type": "function"
    },
    {
      "inputs": [
        {
          "internalType": "bytes32",
          "name": "role",
          "type": "bytes32"
        },
        {
          "internalType": "address",
          "name": "account",
          "type": "address"
        }
      ],
      "name": "grantRole",
      "outputs": [],
      "stateMutability": "nonpayable",
      "type": "function"
    },
    {
      "inputs": [
        {
          "internalType": "bytes32",
          "name": "role",
          "type": "bytes32"
        },
        {
          "internalType": "address",
          "name": "account",
          "type": "address"
        }
      ],
      "name": "hasRole",
      "outputs": [
        {
          "internalType": "bool",
          "name": "",
          "type": "bool"
        }
      ],
      "stateMutability": "view",
      "type": "function"
    },
    {
      "inputs": [
        {
          "internalType": "bytes32",
          "name": "role",
          "type": "bytes32"
        },
        {
          "internalType": "address",
          "name": "callerConfirmation",
          "type": "address"
        }
      ],
      "name": "renounceRole",
      "outputs": [],
      "stateMutability": "nonpayable",
      "type": "function"
    },
    {
      "inputs": [
        {
          "internalType": "bytes32",
          "name": "role",
          "type": "bytes32"
        },
        {
          "internalType": "address",
          "name": "account",
          "type": "address"
        }
      ],
      "name": "revokeRole",
      "outputs": [],
      "stateMutability": "nonpayable",
      "type": "function"
    },
    {
      "inputs": [
        {
          "internalType": "address",
          "name": "",
          "type": "address"
        }
      ],
      "name": "rewards",
      "outputs": [
        {
          "internalType": "uint256",
          "name": "",
          "type": "uint256"
        }
      ],
      "stateMutability": "view",
      "type": "function"
    },
    {
      "inputs": [
        {
          "internalType": "uint256",
          "name": "amount",
          "type": "uint256"
        }
      ],
      "name": "stake",
      "outputs": [],
      "stateMutability": "nonpayable",
      "type": "function"
    },
    {
      "inputs": [
        {
          "internalType": "address",
          "name": "",
          "type": "address"
        }
      ],
      "name": "stakes",
      "outputs": [
        {
          "internalType": "uint256",
          "name": "amount",
          "type": "uint256"
        },
        {
          "internalType": "uint256",
          "name": "lastUpdate",
          "type": "uint256"
        }
      ],
      "stateMutability": "view",
      "type": "function"
    },
    {
      "inputs": [
        {
          "internalType": "bytes4",
          "name": "interfaceId",
          "type": "bytes4"
        }
      ],
      "name": "supportsInterface",
      "outputs": [
        {
          "internalType": "bool",
          "name": "",
          "type": "bool"
        }
      ],
      "stateMutability": "view",
      "type": "function"
    },
    {
      "inputs": [],
      "name": "token",
      "outputs": [
        {
          "internalType": "contract IERC20",
          "name": "",
          "type": "address"
        }
      ],
      "stateMutability": "view",
      "type": "function"
    },
    {
      "inputs": [
        {
          "internalType": "uint256",
          "name": "amount",
          "type": "uint256"
        }
      ],
      "name": "withdraw",
      "outputs": [],
      "stateMutability": "nonpayable",
      "type": "function"
    }
  ],
  "bytecode": "0x608060405234801561001057600080fd5b50604051611eea380380611eea83398181016040528101906100329190610297565b6001808190555061004c6000801b336100c560201b60201c565b5061007d7f61b754da92d8d8d7300489a35a466b9ed19cf4a61860a290f89bec3a75de2bcf336100c560201b60201c565b5080600260006101000a81548173ffffffffffffffffffffffffffffffffffffffff021916908373ffffffffffffffffffffffffffffffffffffffff160217905550506102c4565b60006100d783836101c260201b60201c565b6101b757600160008085815260200190815260200160002060000160008473ffffffffffffffffffffffffffffffffffffffff1673ffffffffffffffffffffffffffffffffffffffff16815260200190815260200160002060006101000a81548160ff02191690831515021790555061015461022c60201b60201c565b73ffffffffffffffffffffffffffffffffffffffff168273ffffffffffffffffffffffffffffffffffffffff16847f2f8788117e7eff1d82e926ec794901d17c78024a50270940304540a733656f0d60405160405180910390a4600190506101bc565b600090505b92915050565b600080600084815260200190815260200160002060000160008373ffffffffffffffffffffffffffffffffffffffff1673ffffffffffffffffffffffffffffffffffffffff16815260200190815260200160002060009054906101000a900460ff16905092915050565b600033905090565b600080fd5b600073ffffffffffffffffffffffffffffffffffffffff82169050919050565b600061026482610239565b9050919050565b61027481610259565b811461027f57600080fd5b50565b6000815190506102918161026b565b92915050565b6000602082840312156102ad576102ac610234565b5b60006102bb84828501610282565b91505092915050565b611c17806102d36000396000f3fe608060405234801561001057600080fd5b506004361061010b5760003560e01c80635997bb37116100a2578063a694fc3a11610071578063a694fc3a146102b7578063d547741f146102d3578063f0090cf6146102ef578063f6ed20171461030d578063fc0c546a1461033d5761010b565b80635997bb371461022f57806391d148541461024d57806393707a191461027d578063a217fddf146102995761010b565b80632e1a7d4d116100de5780632e1a7d4d146101d15780632f2ff15d146101ed57806336568abe14610209578063372500ab146102255761010b565b806301ffc9a7146101105780630700037d1461014057806316934fc414610170578063248a9ca3146101a1575b600080fd5b61012a60048036038101906101259190611433565b61035b565b604051610137919061147b565b60405180910390f35b61015a600480360381019061015591906114f4565b6103d5565b604051610167919061153a565b60405180910390f35b61018a600480360381019061018591906114f4565b6103ed565b604051610198929190611555565b60405180910390f35b6101bb60048036038101906101b691906115b4565b610411565b6040516101c891906115f0565b60405180910390f35b6101eb60048036038101906101e69190611637565b610430565b005b61020760048036038101906102029190611664565b6106e1565b005b610223600480360381019061021e9190611664565b610703565b005b61022d61077e565b005b610237610993565b604051610244919061153a565b60405180910390f35b61026760048036038101906102629190611664565b61099f565b604051610274919061147b565b60405180910390f35b61029760048036038101906102929190611637565b610a09565b005b6102a1610b5b565b6040516102ae91906115f0565b60405180910390f35b6102d160048036038101906102cc9190611637565b610b62565b005b6102ed60048036038101906102e89190611664565b610d90565b005b6102f7610db2565b60405161030491906115f0565b60405180910390f35b610327600480360381019061032291906114f4565b610dd6565b604051610334919061153a565b60405180910390f35b610345610ef2565b6040516103529190611703565b60405180910390f35b60007f7965db0b000000000000000000000000000000000000000000000000000000007bffffffffffffffffffffffffffffffffffffffffffffffffffffffff1916827bffffffffffffffffffffffffffffffffffffffffffffffffffffffff191614806103ce57506103cd82610f18565b5b9050919050565b60046020528060005260406000206000915090505481565b60036020528060005260406000206000915090508060000154908060010154905082565b6000806000838152602001908152602001600020600101549050919050565b610438610f82565b6000811161047b576040517f08c379a00000000000000000000000000000000000000000000000000000000081526004016104729061177b565b60405180910390fd5b80600360003373ffffffffffffffffffffffffffffffffffffffff1673ffffffffffffffffffffffffffffffffffffffff168152602001908152602001600020600001541015610500576040517f08c379a00000000000000000000000000000000000000000000000000000000081526004016104f7906117e7565b60405180910390fd5b61050933610fc8565b80600360003373ffffffffffffffffffffffffffffffffffffffff1673ffffffffffffffffffffffffffffffffffffffff168152602001908152602001600020600001600082825461055b9190611836565b9250508190555042600360003373ffffffffffffffffffffffffffffffffffffffff1673ffffffffffffffffffffffffffffffffffffffff16815260200190815260200160002060010181905550600260009054906101000a900473ffffffffffffffffffffffffffffffffffffffff1673ffffffffffffffffffffffffffffffffffffffff1663a9059cbb33836040518363ffffffff1660e01b8152600401610606929190611879565b6020604051808303816000875af1158015610625573d6000803e3d6000fd5b505050506040513d601f19601f8201168201806040525081019061064991906118ce565b610688576040517f08c379a000000000000000000000000000000000000000000000000000000000815260040161067f90611947565b60405180910390fd5b3373ffffffffffffffffffffffffffffffffffffffff167f7084f5476618d8e60b11ef0d7d3f06914655adb8793e28ff7f018d4c76d505d5826040516106ce919061153a565b60405180910390a26106de61117d565b50565b6106ea82610411565b6106f381611186565b6106fd838361119a565b50505050565b61070b61128b565b73ffffffffffffffffffffffffffffffffffffffff168173ffffffffffffffffffffffffffffffffffffffff161461076f576040517f6697b23200000000000000000000000000000000000000000000000000000000815260040160405180910390fd5b6107798282611293565b505050565b610786610f82565b61078f33610fc8565b6000600460003373ffffffffffffffffffffffffffffffffffffffff1673ffffffffffffffffffffffffffffffffffffffff16815260200190815260200160002054905060008111610816576040517f08c379a000000000000000000000000000000000000000000000000000000000815260040161080d906119b3565b60405180910390fd5b6000600460003373ffffffffffffffffffffffffffffffffffffffff1673ffffffffffffffffffffffffffffffffffffffff16815260200190815260200160002081905550600260009054906101000a900473ffffffffffffffffffffffffffffffffffffffff1673ffffffffffffffffffffffffffffffffffffffff1663a9059cbb33836040518363ffffffff1660e01b81526004016108b8929190611879565b6020604051808303816000875af11580156108d7573d6000803e3d6000fd5b505050506040513d601f19601f820116820180604052508101906108fb91906118ce565b61093a576040517f08c379a000000000000000000000000000000000000000000000000000000000815260040161093190611947565b60405180910390fd5b3373ffffffffffffffffffffffffffffffffffffffff167ffc30cddea38e2bf4d6ea7d3f9ed3b6ad7f176419f4963bd81318067a4aee73fe82604051610980919061153a565b60405180910390a25061099161117d565b565b67016345785d8a000081565b600080600084815260200190815260200160002060000160008373ffffffffffffffffffffffffffffffffffffffff1673ffffffffffffffffffffffffffffffffffffffff16815260200190815260200160002060009054906101000a900460ff16905092915050565b7f61b754da92d8d8d7300489a35a466b9ed19cf4a61860a290f89bec3a75de2bcf610a3381611186565b60008211610a76576040517f08c379a0000000000000000000000000000000000000000000000000000000008152600401610a6d90611a1f565b60405180910390fd5b600260009054906101000a900473ffffffffffffffffffffffffffffffffffffffff1673ffffffffffffffffffffffffffffffffffffffff166323b872dd3330856040518463ffffffff1660e01b8152600401610ad593929190611a3f565b6020604051808303816000875af1158015610af4573d6000803e3d6000fd5b505050506040513d601f19601f82011682018060405250810190610b1891906118ce565b610b57576040517f08c379a0000000000000000000000000000000000000000000000000000000008152600401610b4e90611947565b60405180910390fd5b5050565b6000801b81565b610b6a610f82565b60008111610bad576040517f08c379a0000000000000000000000000000000000000000000000000000000008152600401610ba490611ac2565b60405180910390fd5b610bb633610fc8565b80600360003373ffffffffffffffffffffffffffffffffffffffff1673ffffffffffffffffffffffffffffffffffffffff1681526020019081526020016000206000016000828254610c089190611ae2565b9250508190555042600360003373ffffffffffffffffffffffffffffffffffffffff1673ffffffffffffffffffffffffffffffffffffffff16815260200190815260200160002060010181905550600260009054906101000a900473ffffffffffffffffffffffffffffffffffffffff1673ffffffffffffffffffffffffffffffffffffffff166323b872dd3330846040518463ffffffff1660e01b8152600401610cb593929190611a3f565b6020604051808303816000875af1158015610cd4573d6000803e3d6000fd5b505050506040513d601f19601f82011682018060405250810190610cf891906118ce565b610d37576040517f08c379a0000000000000000000000000000000000000000000000000000000008152600401610d2e90611947565b60405180910390fd5b3373ffffffffffffffffffffffffffffffffffffffff167f9e71bc8eea02a63969f509818f2dafb9254532904319f9dbda79b67bd34a5f3d82604051610d7d919061153a565b60405180910390a2610d8d61117d565b50565b610d9982610411565b610da281611186565b610dac8383611293565b50505050565b7f61b754da92d8d8d7300489a35a466b9ed19cf4a61860a290f89bec3a75de2bcf81565b600080600360008473ffffffffffffffffffffffffffffffffffffffff1673ffffffffffffffffffffffffffffffffffffffff1681526020019081526020016000206001015442610e279190611836565b90506a1a1601fc4ea7109e0000008167016345785d8a0000600360008773ffffffffffffffffffffffffffffffffffffffff1673ffffffffffffffffffffffffffffffffffffffff16815260200190815260200160002060000154610e8c9190611b16565b610e969190611b16565b610ea09190611b87565b600460008573ffffffffffffffffffffffffffffffffffffffff1673ffffffffffffffffffffffffffffffffffffffff16815260200190815260200160002054610eea9190611ae2565b915050919050565b600260009054906101000a900473ffffffffffffffffffffffffffffffffffffffff1681565b60007f01ffc9a7000000000000000000000000000000000000000000000000000000007bffffffffffffffffffffffffffffffffffffffffffffffffffffffff1916827bffffffffffffffffffffffffffffffffffffffffffffffffffffffff1916149050919050565b600260015403610fbe576040517f3ee5aeb500000000000000000000000000000000000000000000000000000000815260040160405180910390fd5b6002600181905550565b6000600360008373ffffffffffffffffffffffffffffffffffffffff1673ffffffffffffffffffffffffffffffffffffffff16815260200190815260200160002060010154426110189190611836565b90506000600360008473ffffffffffffffffffffffffffffffffffffffff1673ffffffffffffffffffffffffffffffffffffffff168152602001908152602001600020600001541115611132576a1a1601fc4ea7109e0000008167016345785d8a0000600360008673ffffffffffffffffffffffffffffffffffffffff1673ffffffffffffffffffffffffffffffffffffffff168152602001908152602001600020600001546110c89190611b16565b6110d29190611b16565b6110dc9190611b87565b600460008473ffffffffffffffffffffffffffffffffffffffff1673ffffffffffffffffffffffffffffffffffffffff168152602001908152602001600020600082825461112a9190611ae2565b925050819055505b42600360008473ffffffffffffffffffffffffffffffffffffffff1673ffffffffffffffffffffffffffffffffffffffff168152602001908152602001600020600101819055505050565b60018081905550565b6111978161119261128b565b611385565b50565b60006111a6838361099f565b61128057600160008085815260200190815260200160002060000160008473ffffffffffffffffffffffffffffffffffffffff1673ffffffffffffffffffffffffffffffffffffffff16815260200190815260200160002060006101000a81548160ff02191690831515021790555061121d61128b565b73ffffffffffffffffffffffffffffffffffffffff168273ffffffffffffffffffffffffffffffffffffffff16847f2f8788117e7eff1d82e926ec794901d17c78024a50270940304540a733656f0d60405160405180910390a460019050611285565b600090505b92915050565b600033905090565b600061129f838361099f565b1561137a57600080600085815260200190815260200160002060000160008473ffffffffffffffffffffffffffffffffffffffff1673ffffffffffffffffffffffffffffffffffffffff16815260200190815260200160002060006101000a81548160ff02191690831515021790555061131761128b565b73ffffffffffffffffffffffffffffffffffffffff168273ffffffffffffffffffffffffffffffffffffffff16847ff6391f5c32d9c69d2a47ea670b442974b53935d1edc7fd64eb21e047a839171b60405160405180910390a46001905061137f565b600090505b92915050565b61138f828261099f565b6113d25780826040517fe2517d3f0000000000000000000000000000000000000000000000000000000081526004016113c9929190611bb8565b60405180910390fd5b5050565b600080fd5b60007fffffffff0000000000000000000000000000000000000000000000000000000082169050919050565b611410816113db565b811461141b57600080fd5b50565b60008135905061142d81611407565b92915050565b600060208284031215611449576114486113d6565b5b60006114578482850161141e565b91505092915050565b60008115159050919050565b61147581611460565b82525050565b6000602082019050611490600083018461146c565b92915050565b600073ffffffffffffffffffffffffffffffffffffffff82169050919050565b60006114c182611496565b9050919050565b6114d1816114b6565b81146114dc57600080fd5b50565b6000813590506114ee816114c8565b92915050565b60006020828403121561150a576115096113d6565b5b6000611518848285016114df565b91505092915050565b6000819050919050565b61153481611521565b82525050565b600060208201905061154f600083018461152b565b92915050565b600060408201905061156a600083018561152b565b611577602083018461152b565b9392505050565b6000819050919050565b6115918161157e565b811461159c57600080fd5b50565b6000813590506115ae81611588565b92915050565b6000602082840312156115ca576115c96113d6565b5b60006115d88482850161159f565b91505092915050565b6115ea8161157e565b82525050565b600060208201905061160560008301846115e1565b92915050565b61161481611521565b811461161f57600080fd5b50565b6000813590506116318161160b565b92915050565b60006020828403121561164d5761164c6113d6565b5b600061165b84828501611622565b91505092915050565b6000806040838503121561167b5761167a6113d6565b5b60006116898582860161159f565b925050602061169a858286016114df565b9150509250929050565b6000819050919050565b60006116c96116c46116bf84611496565b6116a4565b611496565b9050919050565b60006116db826116ae565b9050919050565b60006116ed826116d0565b9050919050565b6116fd816116e2565b82525050565b600060208201905061171860008301846116f4565b92915050565b600082825260208201905092915050565b7f4d75737420776974686472617720706f73697469766520616d6f756e74000000600082015250565b6000611765601d8361171e565b91506117708261172f565b602082019050919050565b6000602082019050818103600083015261179481611758565b9050919050565b7f496e73756666696369656e74207374616b650000000000000000000000000000600082015250565b60006117d160128361171e565b91506117dc8261179b565b602082019050919050565b60006020820190508181036000830152611800816117c4565b9050919050565b7f4e487b7100000000000000000000000000000000000000000000000000000000600052601160045260246000fd5b600061184182611521565b915061184c83611521565b925082820390508181111561186457611863611807565b5b92915050565b611873816114b6565b82525050565b600060408201905061188e600083018561186a565b61189b602083018461152b565b9392505050565b6118ab81611460565b81146118b657600080fd5b50565b6000815190506118c8816118a2565b92915050565b6000602082840312156118e4576118e36113d6565b5b60006118f2848285016118b9565b91505092915050565b7f5472616e73666572206661696c65640000000000000000000000000000000000600082015250565b6000611931600f8361171e565b915061193c826118fb565b602082019050919050565b6000602082019050818103600083015261196081611924565b9050919050565b7f4e6f207265776172647320746f20636c61696d00000000000000000000000000600082015250565b600061199d60138361171e565b91506119a882611967565b602082019050919050565b600060208201905081810360008301526119cc81611990565b9050919050565b7f4d7573742066756e6420706f73697469766520616d6f756e7400000000000000600082015250565b6000611a0960198361171e565b9150611a14826119d3565b602082019050919050565b60006020820190508181036000830152611a38816119fc565b9050919050565b6000606082019050611a54600083018661186a565b611a61602083018561186a565b611a6e604083018461152b565b949350505050565b7f4d757374207374616b6520706f73697469766520616d6f756e74000000000000600082015250565b6000611aac601a8361171e565b9150611ab782611a76565b602082019050919050565b60006020820190508181036000830152611adb81611a9f565b9050919050565b6000611aed82611521565b9150611af883611521565b9250828201905080821115611b1057611b0f611807565b5b92915050565b6000611b2182611521565b9150611b2c83611521565b9250828202611b3a81611521565b91508282048414831517611b5157611b50611807565b5b5092915050565b7f4e487b7100000000000000000000000000000000000000000000000000000000600052601260045260246000fd5b6000611b9282611521565b9150611b9d83611521565b925082611bad57611bac611b58565b5b828204905092915050565b6000604082019050611bcd600083018561186a565b611bda60208301846115e1565b939250505056fea264697066735822122016feafd117828f2c890b97cfd052e6cc2b844b8fb582f7092dc9833b571220ea64736f6c634300081c0033",
  "linkReferences": {},
  "deployedLinkReferences": {}
}