{
  "_format": "hh-sol-artifact-1",
  "contractName": "Staking",
  "sourceName": "contracts/Staking.sol",
  "abi": [
    {
      "inputs": [
        {
          "internalType": "address",
          "name": "_token",
          "type": "address"
        }
      ],
      "stateMutability": "nonpayable",
      "type": "constructor"
    },
    {
      "inputs": [],
      "name": "AccessControlBadConfirmation",
      "type": "error"
    },
    {
      "inputs": [
        {
          "internalType": "address",
          "name": "account",
          "type": "address"
        },
        {
          "internalType": "bytes32",
          "name": "neededRole",
          "type": "bytes32"
        }
      ],
      "name": "AccessControlUnauthorizedAccount",
      "type": "error"
    },
    {
      "inputs": [],
      "name": "EnforcedPause",
      "type": "error"
    },
    {
      "inputs": [],
      "name": "ExpectedPause",
      "type": "error"
    },
    {
      "inputs": [],
      "name": "ReentrancyGuardReentrantCall",
      "type": "error"
    },
    {
      "anonymous": false,
      "inputs": [
        {
          "indexed": false,
          "internalType": "address",
          "name": "account",
          "type": "address"
        }
      ],
      "name": "ContractPaused",
      "type": "event"
    },
    {
      "anonymous": false,
      "inputs": [
        {
          "indexed": false,
          "internalType": "address",
          "name": "account",
          "type": "address"
        }
      ],
      "name": "Paused",
      "type": "event"
    },
    {
      "anonymous": false,
      "inputs": [
        {
          "indexed": true,
          "internalType": "address",
          "name": "user",
          "type": "address"
        },
        {
          "indexed": false,
          "internalType": "uint256",
          "name": "amount",
          "type": "uint256"
        }
      ],
      "name": "RewardsClaimed",
      "type": "event"
    },
    {
      "anonymous": false,
      "inputs": [
        {
          "indexed": true,
          "internalType": "bytes32",
          "name": "role",
          "type": "bytes32"
        },
        {
          "indexed": true,
          "internalType": "bytes32",
          "name": "previousAdminRole",
          "type": "bytes32"
        },
        {
          "indexed": true,
          "internalType": "bytes32",
          "name": "newAdminRole",
          "type": "bytes32"
        }
      ],
      "name": "RoleAdminChanged",
      "type": "event"
    },
    {
      "anonymous": false,
      "inputs": [
        {
          "indexed": true,
          "internalType": "bytes32",
          "name": "role",
          "type": "bytes32"
        },
        {
          "indexed": true,
          "internalType": "address",
          "name": "account",
          "type": "address"
        },
        {
          "indexed": true,
          "internalType": "address",
          "name": "sender",
          "type": "address"
        }
      ],
      "name": "RoleGranted",
      "type": "event"
    },
    {
      "anonymous": false,
      "inputs": [
        {
          "indexed": true,
          "internalType": "bytes32",
          "name": "role",
          "type": "bytes32"
        },
        {
          "indexed": true,
          "internalType": "address",
          "name": "account",
          "type": "address"
        },
        {
          "indexed": true,
          "internalType": "address",
          "name": "sender",
          "type": "address"
        }
      ],
      "name": "RoleRevoked",
      "type": "event"
    },
    {
      "anonymous": false,
      "inputs": [
        {
          "indexed": true,
          "internalType": "address",
          "name": "user",
          "type": "address"
        },
        {
          "indexed": false,
          "internalType": "uint256",
          "name": "amount",
          "type": "uint256"
        }
      ],
      "name": "Staked",
      "type": "event"
    },
    {
      "anonymous": false,
      "inputs": [
        {
          "indexed": false,
          "internalType": "address",
          "name": "account",
          "type": "address"
        }
      ],
      "name": "Unpaused",
      "type": "event"
    },
    {
      "anonymous": false,
      "inputs": [
        {
          "indexed": true,
          "internalType": "address",
          "name": "user",
          "type": "address"
        },
        {
          "indexed": false,
          "internalType": "uint256",
          "name": "amount",
          "type": "uint256"
        }
      ],
      "name": "Withdrawn",
      "type": "event"
    },
    {
      "anonymous": false,
      "inputs": [
        {
          "indexed": false,
          "internalType": "address",
          "name": "account",
          "type": "address"
        }
      ],
      "name": "contractUnpaused",
      "type": "event"
    },
    {
      "inputs": [],
      "name": "DEFAULT_ADMIN_ROLE",
      "outputs": [
        {
          "internalType": "bytes32",
          "name": "",
          "type": "bytes32"
        }
      ],
      "stateMutability": "view",
      "type": "function"
    },
    {
      "inputs": [],
      "name": "PAUSER_ROLE",
      "outputs": [
        {
          "internalType": "bytes32",
          "name": "",
          "type": "bytes32"
        }
      ],
      "stateMutability": "view",
      "type": "function"
    },
    {
      "inputs": [],
      "name": "REWARD_FUNDER_ROLE",
      "outputs": [
        {
          "internalType": "bytes32",
          "name": "",
          "type": "bytes32"
        }
      ],
      "stateMutability": "view",
      "type": "function"
    },
    {
      "inputs": [],
      "name": "REWARD_RATE",
      "outputs": [
        {
          "internalType": "uint256",
          "name": "",
          "type": "uint256"
        }
      ],
      "stateMutability": "view",
      "type": "function"
    },
    {
      "inputs": [],
      "name": "claimRewards",
      "outputs": [],
      "stateMutability": "nonpayable",
      "type": "function"
    },
    {
      "inputs": [
        {
          "internalType": "uint256",
          "name": "amount",
          "type": "uint256"
        }
      ],
      "name": "fundRewards",
      "outputs": [],
      "stateMutability": "nonpayable",
      "type": "function"
    },
    {
      "inputs": [
        {
          "internalType": "address",
          "name": "user",
          "type": "address"
        }
      ],
      "name": "getPendingRewards",
      "outputs": [
        {
          "internalType": "uint256",
          "name": "",
          "type": "uint256"
        }
      ],
      "stateMutability": "view",
      "type": "function"
    },
    {
      "inputs": [
        {
          "internalType": "bytes32",
          "name": "role",
          "type": "bytes32"
        }
      ],
      "name": "getRoleAdmin",
      "outputs": [
        {
          "internalType": "bytes32",
          "name": "",
          "type": "bytes32"
        }
      ],
      "stateMutability": "view",
      "type": "function"
    },
    {
      "inputs": [
        {
          "internalType": "bytes32",
          "name": "role",
          "type": "bytes32"
        },
        {
          "internalType": "address",
          "name": "account",
          "type": "address"
        }
      ],
      "name": "grantRole",
      "outputs": [],
      "stateMutability": "nonpayable",
      "type": "function"
    },
    {
      "inputs": [
        {
          "internalType": "bytes32",
          "name": "role",
          "type": "bytes32"
        },
        {
          "internalType": "address",
          "name": "account",
          "type": "address"
        }
      ],
      "name": "hasRole",
      "outputs": [
        {
          "internalType": "bool",
          "name": "",
          "type": "bool"
        }
      ],
      "stateMutability": "view",
      "type": "function"
    },
    {
      "inputs": [],
      "name": "pause",
      "outputs": [],
      "stateMutability": "nonpayable",
      "type": "function"
    },
    {
      "inputs": [],
      "name": "paused",
      "outputs": [
        {
          "internalType": "bool",
          "name": "",
          "type": "bool"
        }
      ],
      "stateMutability": "view",
      "type": "function"
    },
    {
      "inputs": [
        {
          "internalType": "bytes32",
          "name": "role",
          "type": "bytes32"
        },
        {
          "internalType": "address",
          "name": "callerConfirmation",
          "type": "address"
        }
      ],
      "name": "renounceRole",
      "outputs": [],
      "stateMutability": "nonpayable",
      "type": "function"
    },
    {
      "inputs": [
        {
          "internalType": "bytes32",
          "name": "role",
          "type": "bytes32"
        },
        {
          "internalType": "address",
          "name": "account",
          "type": "address"
        }
      ],
      "name": "revokeRole",
      "outputs": [],
      "stateMutability": "nonpayable",
      "type": "function"
    },
    {
      "inputs": [
        {
          "internalType": "address",
          "name": "",
          "type": "address"
        }
      ],
      "name": "rewards",
      "outputs": [
        {
          "internalType": "uint256",
          "name": "",
          "type": "uint256"
        }
      ],
      "stateMutability": "view",
      "type": "function"
    },
    {
      "inputs": [
        {
          "internalType": "uint256",
          "name": "amount",
          "type": "uint256"
        }
      ],
      "name": "stake",
      "outputs": [],
      "stateMutability": "nonpayable",
      "type": "function"
    },
    {
      "inputs": [
        {
          "internalType": "address",
          "name": "",
          "type": "address"
        }
      ],
      "name": "stakes",
      "outputs": [
        {
          "internalType": "uint256",
          "name": "amount",
          "type": "uint256"
        },
        {
          "internalType": "uint256",
          "name": "lastUpdate",
          "type": "uint256"
        }
      ],
      "stateMutability": "view",
      "type": "function"
    },
    {
      "inputs": [
        {
          "internalType": "bytes4",
          "name": "interfaceId",
          "type": "bytes4"
        }
      ],
      "name": "supportsInterface",
      "outputs": [
        {
          "internalType": "bool",
          "name": "",
          "type": "bool"
        }
      ],
      "stateMutability": "view",
      "type": "function"
    },
    {
      "inputs": [],
      "name": "token",
      "outputs": [
        {
          "internalType": "contract IERC20",
          "name": "",
          "type": "address"
        }
      ],
      "stateMutability": "view",
      "type": "function"
    },
    {
      "inputs": [],
      "name": "unpause",
      "outputs": [],
      "stateMutability": "nonpayable",
      "type": "function"
    },
    {
      "inputs": [
        {
          "internalType": "uint256",
          "name": "amount",
          "type": "uint256"
        }
      ],
      "name": "withdraw",
      "outputs": [],
      "stateMutability": "nonpayable",
      "type": "function"
    }
  ],
  "bytecode": "0x608060405234801561001057600080fd5b50604051612224380380612224833981810160405281019061003291906102c8565b6001808190555061004c6000801b336100f660201b60201c565b5061007d7f61b754da92d8d8d7300489a35a466b9ed19cf4a61860a290f89bec3a75de2bcf336100f660201b60201c565b506100ae7f65d7a28e3265b37a6474929f336521b332c1681b933f6cb9f3376673440d862a336100f660201b60201c565b5080600260016101000a81548173ffffffffffffffffffffffffffffffffffffffff021916908373ffffffffffffffffffffffffffffffffffffffff160217905550506102f5565b600061010883836101f360201b60201c565b6101e857600160008085815260200190815260200160002060000160008473ffffffffffffffffffffffffffffffffffffffff1673ffffffffffffffffffffffffffffffffffffffff16815260200190815260200160002060006101000a81548160ff02191690831515021790555061018561025d60201b60201c565b73ffffffffffffffffffffffffffffffffffffffff168273ffffffffffffffffffffffffffffffffffffffff16847f2f8788117e7eff1d82e926ec794901d17c78024a50270940304540a733656f0d60405160405180910390a4600190506101ed565b600090505b92915050565b600080600084815260200190815260200160002060000160008373ffffffffffffffffffffffffffffffffffffffff1673ffffffffffffffffffffffffffffffffffffffff16815260200190815260200160002060009054906101000a900460ff16905092915050565b600033905090565b600080fd5b600073ffffffffffffffffffffffffffffffffffffffff82169050919050565b60006102958261026a565b9050919050565b6102a58161028a565b81146102b057600080fd5b50565b6000815190506102c28161029c565b92915050565b6000602082840312156102de576102dd610265565b5b60006102ec848285016102b3565b91505092915050565b611f20806103046000396000f3fe608060405234801561001057600080fd5b50600436106101375760003560e01c80635c975abb116100b8578063a694fc3a1161007c578063a694fc3a14610315578063d547741f14610331578063e63ab1e91461034d578063f0090cf61461036b578063f6ed201714610389578063fc0c546a146103b957610137565b80635c975abb146102835780638456cb59146102a157806391d14854146102ab57806393707a19146102db578063a217fddf146102f757610137565b80632f2ff15d116100ff5780632f2ff15d1461021957806336568abe14610235578063372500ab146102515780633f4ba83a1461025b5780635997bb371461026557610137565b806301ffc9a71461013c5780630700037d1461016c57806316934fc41461019c578063248a9ca3146101cd5780632e1a7d4d146101fd575b600080fd5b61015660048036038101906101519190611721565b6103d7565b6040516101639190611769565b60405180910390f35b610186600480360381019061018191906117e2565b610451565b6040516101939190611828565b60405180910390f35b6101b660048036038101906101b191906117e2565b610469565b6040516101c4929190611843565b60405180910390f35b6101e760048036038101906101e291906118a2565b61048d565b6040516101f491906118de565b60405180910390f35b61021760048036038101906102129190611925565b6104ac565b005b610233600480360381019061022e9190611952565b610765565b005b61024f600480360381019061024a9190611952565b610787565b005b610259610802565b005b610263610a1f565b005b61026d610a8b565b60405161027a9190611828565b60405180910390f35b61028b610a97565b6040516102989190611769565b60405180910390f35b6102a9610aae565b005b6102c560048036038101906102c09190611952565b610b1a565b6040516102d29190611769565b60405180910390f35b6102f560048036038101906102f09190611925565b610b84565b005b6102ff610cd6565b60405161030c91906118de565b60405180910390f35b61032f600480360381019061032a9190611925565b610cdd565b005b61034b60048036038101906103469190611952565b610f13565b005b610355610f35565b60405161036291906118de565b60405180910390f35b610373610f59565b60405161038091906118de565b60405180910390f35b6103a3600480360381019061039e91906117e2565b610f7d565b6040516103b09190611828565b60405180910390f35b6103c1611099565b6040516103ce91906119f1565b60405180910390f35b60007f7965db0b000000000000000000000000000000000000000000000000000000007bffffffffffffffffffffffffffffffffffffffffffffffffffffffff1916827bffffffffffffffffffffffffffffffffffffffffffffffffffffffff1916148061044a5750610449826110bf565b5b9050919050565b60046020528060005260406000206000915090505481565b60036020528060005260406000206000915090508060000154908060010154905082565b6000806000838152602001908152602001600020600101549050919050565b6104b4611129565b6104bc61116f565b600081116104ff576040517f08c379a00000000000000000000000000000000000000000000000000000000081526004016104f690611a69565b60405180910390fd5b80600360003373ffffffffffffffffffffffffffffffffffffffff1673ffffffffffffffffffffffffffffffffffffffff168152602001908152602001600020600001541015610584576040517f08c379a000000000000000000000000000000000000000000000000000000000815260040161057b90611ad5565b60405180910390fd5b61058d336111b0565b80600360003373ffffffffffffffffffffffffffffffffffffffff1673ffffffffffffffffffffffffffffffffffffffff16815260200190815260200160002060000160008282546105df9190611b24565b9250508190555042600360003373ffffffffffffffffffffffffffffffffffffffff1673ffffffffffffffffffffffffffffffffffffffff16815260200190815260200160002060010181905550600260019054906101000a900473ffffffffffffffffffffffffffffffffffffffff1673ffffffffffffffffffffffffffffffffffffffff1663a9059cbb33836040518363ffffffff1660e01b815260040161068a929190611b67565b6020604051808303816000875af11580156106a9573d6000803e3d6000fd5b505050506040513d601f19601f820116820180604052508101906106cd9190611bbc565b61070c576040517f08c379a000000000000000000000000000000000000000000000000000000000815260040161070390611c35565b60405180910390fd5b3373ffffffffffffffffffffffffffffffffffffffff167f7084f5476618d8e60b11ef0d7d3f06914655adb8793e28ff7f018d4c76d505d5826040516107529190611828565b60405180910390a2610762611365565b50565b61076e8261048d565b6107778161136e565b6107818383611382565b50505050565b61078f611473565b73ffffffffffffffffffffffffffffffffffffffff168173ffffffffffffffffffffffffffffffffffffffff16146107f3576040517f6697b23200000000000000000000000000000000000000000000000000000000815260040160405180910390fd5b6107fd828261147b565b505050565b61080a611129565b61081261116f565b61081b336111b0565b6000600460003373ffffffffffffffffffffffffffffffffffffffff1673ffffffffffffffffffffffffffffffffffffffff168152602001908152602001600020549050600081116108a2576040517f08c379a000000000000000000000000000000000000000000000000000000000815260040161089990611ca1565b60405180910390fd5b6000600460003373ffffffffffffffffffffffffffffffffffffffff1673ffffffffffffffffffffffffffffffffffffffff16815260200190815260200160002081905550600260019054906101000a900473ffffffffffffffffffffffffffffffffffffffff1673ffffffffffffffffffffffffffffffffffffffff1663a9059cbb33836040518363ffffffff1660e01b8152600401610944929190611b67565b6020604051808303816000875af1158015610963573d6000803e3d6000fd5b505050506040513d601f19601f820116820180604052508101906109879190611bbc565b6109c6576040517f08c379a00000000000000000000000000000000000000000000000000000000081526004016109bd90611c35565b60405180910390fd5b3373ffffffffffffffffffffffffffffffffffffffff167ffc30cddea38e2bf4d6ea7d3f9ed3b6ad7f176419f4963bd81318067a4aee73fe82604051610a0c9190611828565b60405180910390a250610a1d611365565b565b7f65d7a28e3265b37a6474929f336521b332c1681b933f6cb9f3376673440d862a610a498161136e565b610a5161156d565b7f5db9ee0a495bf2e6ff9c91a7834c1ba4fdd244a5e8aa4e537bd38aeae4b073aa33604051610a809190611cc1565b60405180910390a150565b67016345785d8a000081565b6000600260009054906101000a900460ff16905090565b7f65d7a28e3265b37a6474929f336521b332c1681b933f6cb9f3376673440d862a610ad88161136e565b610ae06115d0565b7f62e78cea01bee320cd4e420270b5ea74000d11b0c9f74754ebdbfc544b05a25833604051610b0f9190611cc1565b60405180910390a150565b600080600084815260200190815260200160002060000160008373ffffffffffffffffffffffffffffffffffffffff1673ffffffffffffffffffffffffffffffffffffffff16815260200190815260200160002060009054906101000a900460ff16905092915050565b7f61b754da92d8d8d7300489a35a466b9ed19cf4a61860a290f89bec3a75de2bcf610bae8161136e565b60008211610bf1576040517f08c379a0000000000000000000000000000000000000000000000000000000008152600401610be890611d28565b60405180910390fd5b600260019054906101000a900473ffffffffffffffffffffffffffffffffffffffff1673ffffffffffffffffffffffffffffffffffffffff166323b872dd3330856040518463ffffffff1660e01b8152600401610c5093929190611d48565b6020604051808303816000875af1158015610c6f573d6000803e3d6000fd5b505050506040513d601f19601f82011682018060405250810190610c939190611bbc565b610cd2576040517f08c379a0000000000000000000000000000000000000000000000000000000008152600401610cc990611c35565b60405180910390fd5b5050565b6000801b81565b610ce5611129565b610ced61116f565b60008111610d30576040517f08c379a0000000000000000000000000000000000000000000000000000000008152600401610d2790611dcb565b60405180910390fd5b610d39336111b0565b80600360003373ffffffffffffffffffffffffffffffffffffffff1673ffffffffffffffffffffffffffffffffffffffff1681526020019081526020016000206000016000828254610d8b9190611deb565b9250508190555042600360003373ffffffffffffffffffffffffffffffffffffffff1673ffffffffffffffffffffffffffffffffffffffff16815260200190815260200160002060010181905550600260019054906101000a900473ffffffffffffffffffffffffffffffffffffffff1673ffffffffffffffffffffffffffffffffffffffff166323b872dd3330846040518463ffffffff1660e01b8152600401610e3893929190611d48565b6020604051808303816000875af1158015610e57573d6000803e3d6000fd5b505050506040513d601f19601f82011682018060405250810190610e7b9190611bbc565b610eba576040517f08c379a0000000000000000000000000000000000000000000000000000000008152600401610eb190611c35565b60405180910390fd5b3373ffffffffffffffffffffffffffffffffffffffff167f9e71bc8eea02a63969f509818f2dafb9254532904319f9dbda79b67bd34a5f3d82604051610f009190611828565b60405180910390a2610f10611365565b50565b610f1c8261048d565b610f258161136e565b610f2f838361147b565b50505050565b7f65d7a28e3265b37a6474929f336521b332c1681b933f6cb9f3376673440d862a81565b7f61b754da92d8d8d7300489a35a466b9ed19cf4a61860a290f89bec3a75de2bcf81565b600080600360008473ffffffffffffffffffffffffffffffffffffffff1673ffffffffffffffffffffffffffffffffffffffff1681526020019081526020016000206001015442610fce9190611b24565b90506a1a1601fc4ea7109e0000008167016345785d8a0000600360008773ffffffffffffffffffffffffffffffffffffffff1673ffffffffffffffffffffffffffffffffffffffff168152602001908152602001600020600001546110339190611e1f565b61103d9190611e1f565b6110479190611e90565b600460008573ffffffffffffffffffffffffffffffffffffffff1673ffffffffffffffffffffffffffffffffffffffff168152602001908152602001600020546110919190611deb565b915050919050565b600260019054906101000a900473ffffffffffffffffffffffffffffffffffffffff1681565b60007f01ffc9a7000000000000000000000000000000000000000000000000000000007bffffffffffffffffffffffffffffffffffffffffffffffffffffffff1916827bffffffffffffffffffffffffffffffffffffffffffffffffffffffff1916149050919050565b600260015403611165576040517f3ee5aeb500000000000000000000000000000000000000000000000000000000815260040160405180910390fd5b6002600181905550565b611177610a97565b156111ae576040517fd93c066500000000000000000000000000000000000000000000000000000000815260040160405180910390fd5b565b6000600360008373ffffffffffffffffffffffffffffffffffffffff1673ffffffffffffffffffffffffffffffffffffffff16815260200190815260200160002060010154426112009190611b24565b90506000600360008473ffffffffffffffffffffffffffffffffffffffff1673ffffffffffffffffffffffffffffffffffffffff16815260200190815260200160002060000154111561131a576a1a1601fc4ea7109e0000008167016345785d8a0000600360008673ffffffffffffffffffffffffffffffffffffffff1673ffffffffffffffffffffffffffffffffffffffff168152602001908152602001600020600001546112b09190611e1f565b6112ba9190611e1f565b6112c49190611e90565b600460008473ffffffffffffffffffffffffffffffffffffffff1673ffffffffffffffffffffffffffffffffffffffff16815260200190815260200160002060008282546113129190611deb565b925050819055505b42600360008473ffffffffffffffffffffffffffffffffffffffff1673ffffffffffffffffffffffffffffffffffffffff168152602001908152602001600020600101819055505050565b60018081905550565b61137f8161137a611473565b611633565b50565b600061138e8383610b1a565b61146857600160008085815260200190815260200160002060000160008473ffffffffffffffffffffffffffffffffffffffff1673ffffffffffffffffffffffffffffffffffffffff16815260200190815260200160002060006101000a81548160ff021916908315150217905550611405611473565b73ffffffffffffffffffffffffffffffffffffffff168273ffffffffffffffffffffffffffffffffffffffff16847f2f8788117e7eff1d82e926ec794901d17c78024a50270940304540a733656f0d60405160405180910390a46001905061146d565b600090505b92915050565b600033905090565b60006114878383610b1a565b1561156257600080600085815260200190815260200160002060000160008473ffffffffffffffffffffffffffffffffffffffff1673ffffffffffffffffffffffffffffffffffffffff16815260200190815260200160002060006101000a81548160ff0219169083151502179055506114ff611473565b73ffffffffffffffffffffffffffffffffffffffff168273ffffffffffffffffffffffffffffffffffffffff16847ff6391f5c32d9c69d2a47ea670b442974b53935d1edc7fd64eb21e047a839171b60405160405180910390a460019050611567565b600090505b92915050565b611575611684565b6000600260006101000a81548160ff0219169083151502179055507f5db9ee0a495bf2e6ff9c91a7834c1ba4fdd244a5e8aa4e537bd38aeae4b073aa6115b9611473565b6040516115c69190611cc1565b60405180910390a1565b6115d861116f565b6001600260006101000a81548160ff0219169083151502179055507f62e78cea01bee320cd4e420270b5ea74000d11b0c9f74754ebdbfc544b05a25861161c611473565b6040516116299190611cc1565b60405180910390a1565b61163d8282610b1a565b6116805780826040517fe2517d3f000000000000000000000000000000000000000000000000000000008152600401611677929190611ec1565b60405180910390fd5b5050565b61168c610a97565b6116c2576040517f8dfc202b00000000000000000000000000000000000000000000000000000000815260040160405180910390fd5b565b600080fd5b60007fffffffff0000000000000000000000000000000000000000000000000000000082169050919050565b6116fe816116c9565b811461170957600080fd5b50565b60008135905061171b816116f5565b92915050565b600060208284031215611737576117366116c4565b5b60006117458482850161170c565b91505092915050565b60008115159050919050565b6117638161174e565b82525050565b600060208201905061177e600083018461175a565b92915050565b600073ffffffffffffffffffffffffffffffffffffffff82169050919050565b60006117af82611784565b9050919050565b6117bf816117a4565b81146117ca57600080fd5b50565b6000813590506117dc816117b6565b92915050565b6000602082840312156117f8576117f76116c4565b5b6000611806848285016117cd565b91505092915050565b6000819050919050565b6118228161180f565b82525050565b600060208201905061183d6000830184611819565b92915050565b60006040820190506118586000830185611819565b6118656020830184611819565b9392505050565b6000819050919050565b61187f8161186c565b811461188a57600080fd5b50565b60008135905061189c81611876565b92915050565b6000602082840312156118b8576118b76116c4565b5b60006118c68482850161188d565b91505092915050565b6118d88161186c565b82525050565b60006020820190506118f360008301846118cf565b92915050565b6119028161180f565b811461190d57600080fd5b50565b60008135905061191f816118f9565b92915050565b60006020828403121561193b5761193a6116c4565b5b600061194984828501611910565b91505092915050565b60008060408385031215611969576119686116c4565b5b60006119778582860161188d565b9250506020611988858286016117cd565b9150509250929050565b6000819050919050565b60006119b76119b26119ad84611784565b611992565b611784565b9050919050565b60006119c98261199c565b9050919050565b60006119db826119be565b9050919050565b6119eb816119d0565b82525050565b6000602082019050611a0660008301846119e2565b92915050565b600082825260208201905092915050565b7f4d75737420776974686472617720706f73697469766520616d6f756e74000000600082015250565b6000611a53601d83611a0c565b9150611a5e82611a1d565b602082019050919050565b60006020820190508181036000830152611a8281611a46565b9050919050565b7f496e73756666696369656e74207374616b650000000000000000000000000000600082015250565b6000611abf601283611a0c565b9150611aca82611a89565b602082019050919050565b60006020820190508181036000830152611aee81611ab2565b9050919050565b7f4e487b7100000000000000000000000000000000000000000000000000000000600052601160045260246000fd5b6000611b2f8261180f565b9150611b3a8361180f565b9250828203905081811115611b5257611b51611af5565b5b92915050565b611b61816117a4565b82525050565b6000604082019050611b7c6000830185611b58565b611b896020830184611819565b9392505050565b611b998161174e565b8114611ba457600080fd5b50565b600081519050611bb681611b90565b92915050565b600060208284031215611bd257611bd16116c4565b5b6000611be084828501611ba7565b91505092915050565b7f5472616e73666572206661696c65640000000000000000000000000000000000600082015250565b6000611c1f600f83611a0c565b9150611c2a82611be9565b602082019050919050565b60006020820190508181036000830152611c4e81611c12565b9050919050565b7f4e6f207265776172647320746f20636c61696d00000000000000000000000000600082015250565b6000611c8b601383611a0c565b9150611c9682611c55565b602082019050919050565b60006020820190508181036000830152611cba81611c7e565b9050919050565b6000602082019050611cd66000830184611b58565b92915050565b7f4d7573742066756e6420706f73697469766520616d6f756e7400000000000000600082015250565b6000611d12601983611a0c565b9150611d1d82611cdc565b602082019050919050565b60006020820190508181036000830152611d4181611d05565b9050919050565b6000606082019050611d5d6000830186611b58565b611d6a6020830185611b58565b611d776040830184611819565b949350505050565b7f4d757374207374616b6520706f73697469766520616d6f756e74000000000000600082015250565b6000611db5601a83611a0c565b9150611dc082611d7f565b602082019050919050565b60006020820190508181036000830152611de481611da8565b9050919050565b6000611df68261180f565b9150611e018361180f565b9250828201905080821115611e1957611e18611af5565b5b92915050565b6000611e2a8261180f565b9150611e358361180f565b9250828202611e438161180f565b91508282048414831517611e5a57611e59611af5565b5b5092915050565b7f4e487b7100000000000000000000000000000000000000000000000000000000600052601260045260246000fd5b6000611e9b8261180f565b9150611ea68361180f565b925082611eb657611eb5611e61565b5b828204905092915050565b6000604082019050611ed66000830185611b58565b611ee360208301846118cf565b939250505056fea2646970667358221220c629ae4343929bee6be229cdd025c1b6301d4fb10c696ef1b10fe72645b0306b64736f6c634300081c0033",
  "linkReferences": {},
  "deployedLinkReferences": {}
}