{
  "_format": "hh-sol-artifact-1",
  "contractName": "TokenSale",
  "sourceName": "contracts/TokenSale.sol",
  "abi": [
    {
      "inputs": [
        {
          "internalType": "address",
          "name": "_token",
          "type": "address"
        }
      ],
      "stateMutability": "nonpayable",
      "type": "constructor"
    },
    {
      "inputs": [],
      "name": "AccessControlBadConfirmation",
      "type": "error"
    },
    {
      "inputs": [
        {
          "internalType": "address",
          "name": "account",
          "type": "address"
        },
        {
          "internalType": "bytes32",
          "name": "neededRole",
          "type": "bytes32"
        }
      ],
      "name": "AccessControlUnauthorizedAccount",
      "type": "error"
    },
    {
      "anonymous": false,
      "inputs": [
        {
          "indexed": false,
          "internalType": "uint256",
          "name": "newRate",
          "type": "uint256"
        }
      ],
      "name": "RateUpdated",
      "type": "event"
    },
    {
      "anonymous": false,
      "inputs": [
        {
          "indexed": true,
          "internalType": "bytes32",
          "name": "role",
          "type": "bytes32"
        },
        {
          "indexed": true,
          "internalType": "bytes32",
          "name": "previousAdminRole",
          "type": "bytes32"
        },
        {
          "indexed": true,
          "internalType": "bytes32",
          "name": "newAdminRole",
          "type": "bytes32"
        }
      ],
      "name": "RoleAdminChanged",
      "type": "event"
    },
    {
      "anonymous": false,
      "inputs": [
        {
          "indexed": true,
          "internalType": "bytes32",
          "name": "role",
          "type": "bytes32"
        },
        {
          "indexed": true,
          "internalType": "address",
          "name": "account",
          "type": "address"
        },
        {
          "indexed": true,
          "internalType": "address",
          "name": "sender",
          "type": "address"
        }
      ],
      "name": "RoleGranted",
      "type": "event"
    },
    {
      "anonymous": false,
      "inputs": [
        {
          "indexed": true,
          "internalType": "bytes32",
          "name": "role",
          "type": "bytes32"
        },
        {
          "indexed": true,
          "internalType": "address",
          "name": "account",
          "type": "address"
        },
        {
          "indexed": true,
          "internalType": "address",
          "name": "sender",
          "type": "address"
        }
      ],
      "name": "RoleRevoked",
      "type": "event"
    },
    {
      "anonymous": false,
      "inputs": [
        {
          "indexed": true,
          "internalType": "address",
          "name": "buyer",
          "type": "address"
        },
        {
          "indexed": false,
          "internalType": "uint256",
          "name": "ethAmount",
          "type": "uint256"
        },
        {
          "indexed": false,
          "internalType": "uint256",
          "name": "tokenAmount",
          "type": "uint256"
        }
      ],
      "name": "TokensPurchased",
      "type": "event"
    },
    {
      "inputs": [],
      "name": "DEFAULT_ADMIN_ROLE",
      "outputs": [
        {
          "internalType": "bytes32",
          "name": "",
          "type": "bytes32"
        }
      ],
      "stateMutability": "view",
      "type": "function"
    },
    {
      "inputs": [],
      "name": "MAX_SUPPLY",
      "outputs": [
        {
          "internalType": "uint256",
          "name": "",
          "type": "uint256"
        }
      ],
      "stateMutability": "view",
      "type": "function"
    },
    {
      "inputs": [],
      "name": "SELLER_ROLE",
      "outputs": [
        {
          "internalType": "bytes32",
          "name": "",
          "type": "bytes32"
        }
      ],
      "stateMutability": "view",
      "type": "function"
    },
    {
      "inputs": [
        {
          "internalType": "address",
          "name": "account",
          "type": "address"
        }
      ],
      "name": "addSeller",
      "outputs": [],
      "stateMutability": "nonpayable",
      "type": "function"
    },
    {
      "inputs": [],
      "name": "buyTokens",
      "outputs": [],
      "stateMutability": "payable",
      "type": "function"
    },
    {
      "inputs": [
        {
          "internalType": "bytes32",
          "name": "role",
          "type": "bytes32"
        }
      ],
      "name": "getRoleAdmin",
      "outputs": [
        {
          "internalType": "bytes32",
          "name": "",
          "type": "bytes32"
        }
      ],
      "stateMutability": "view",
      "type": "function"
    },
    {
      "inputs": [
        {
          "internalType": "bytes32",
          "name": "role",
          "type": "bytes32"
        },
        {
          "internalType": "address",
          "name": "account",
          "type": "address"
        }
      ],
      "name": "grantRole",
      "outputs": [],
      "stateMutability": "nonpayable",
      "type": "function"
    },
    {
      "inputs": [
        {
          "internalType": "bytes32",
          "name": "role",
          "type": "bytes32"
        },
        {
          "internalType": "address",
          "name": "account",
          "type": "address"
        }
      ],
      "name": "hasRole",
      "outputs": [
        {
          "internalType": "bool",
          "name": "",
          "type": "bool"
        }
      ],
      "stateMutability": "view",
      "type": "function"
    },
    {
      "inputs": [
        {
          "internalType": "uint256",
          "name": "amount",
          "type": "uint256"
        }
      ],
      "name": "mintToContract",
      "outputs": [],
      "stateMutability": "nonpayable",
      "type": "function"
    },
    {
      "inputs": [],
      "name": "rate",
      "outputs": [
        {
          "internalType": "uint256",
          "name": "",
          "type": "uint256"
        }
      ],
      "stateMutability": "view",
      "type": "function"
    },
    {
      "inputs": [
        {
          "internalType": "address",
          "name": "account",
          "type": "address"
        }
      ],
      "name": "removeSeller",
      "outputs": [],
      "stateMutability": "nonpayable",
      "type": "function"
    },
    {
      "inputs": [
        {
          "internalType": "bytes32",
          "name": "role",
          "type": "bytes32"
        },
        {
          "internalType": "address",
          "name": "callerConfirmation",
          "type": "address"
        }
      ],
      "name": "renounceRole",
      "outputs": [],
      "stateMutability": "nonpayable",
      "type": "function"
    },
    {
      "inputs": [
        {
          "internalType": "bytes32",
          "name": "role",
          "type": "bytes32"
        },
        {
          "internalType": "address",
          "name": "account",
          "type": "address"
        }
      ],
      "name": "revokeRole",
      "outputs": [],
      "stateMutability": "nonpayable",
      "type": "function"
    },
    {
      "inputs": [
        {
          "internalType": "uint256",
          "name": "_rate",
          "type": "uint256"
        }
      ],
      "name": "setRate",
      "outputs": [],
      "stateMutability": "nonpayable",
      "type": "function"
    },
    {
      "inputs": [
        {
          "internalType": "bytes4",
          "name": "interfaceId",
          "type": "bytes4"
        }
      ],
      "name": "supportsInterface",
      "outputs": [
        {
          "internalType": "bool",
          "name": "",
          "type": "bool"
        }
      ],
      "stateMutability": "view",
      "type": "function"
    },
    {
      "inputs": [],
      "name": "token",
      "outputs": [
        {
          "internalType": "contract IERC20",
          "name": "",
          "type": "address"
        }
      ],
      "stateMutability": "view",
      "type": "function"
    },
    {
      "inputs": [],
      "name": "totalSold",
      "outputs": [
        {
          "internalType": "uint256",
          "name": "",
          "type": "uint256"
        }
      ],
      "stateMutability": "view",
      "type": "function"
    },
    {
      "inputs": [],
      "name": "withdraw",
      "outputs": [],
      "stateMutability": "nonpayable",
      "type": "function"
    }
  ],
  "bytecode": "0x60806040526103e860025534801561001657600080fd5b506040516119b53803806119b583398181016040528101906100389190610296565b61004b6000801b336100c460201b60201c565b5061007c7f43f25613eb2f15fb17222a5d424ca2655743e71265d98e4b93c05e5fb589ecde336100c460201b60201c565b5080600160006101000a81548173ffffffffffffffffffffffffffffffffffffffff021916908373ffffffffffffffffffffffffffffffffffffffff160217905550506102c3565b60006100d683836101c160201b60201c565b6101b657600160008085815260200190815260200160002060000160008473ffffffffffffffffffffffffffffffffffffffff1673ffffffffffffffffffffffffffffffffffffffff16815260200190815260200160002060006101000a81548160ff02191690831515021790555061015361022b60201b60201c565b73ffffffffffffffffffffffffffffffffffffffff168273ffffffffffffffffffffffffffffffffffffffff16847f2f8788117e7eff1d82e926ec794901d17c78024a50270940304540a733656f0d60405160405180910390a4600190506101bb565b600090505b92915050565b600080600084815260200190815260200160002060000160008373ffffffffffffffffffffffffffffffffffffffff1673ffffffffffffffffffffffffffffffffffffffff16815260200190815260200160002060009054906101000a900460ff16905092915050565b600033905090565b600080fd5b600073ffffffffffffffffffffffffffffffffffffffff82169050919050565b600061026382610238565b9050919050565b61027381610258565b811461027e57600080fd5b50565b6000815190506102908161026a565b92915050565b6000602082840312156102ac576102ab610233565b5b60006102ba84828501610281565b91505092915050565b6116e3806102d26000396000f3fe6080604052600436106101095760003560e01c80639106d7ba11610095578063d0febe4c11610064578063d0febe4c14610355578063d547741f1461035f578063d93fabfa14610388578063dbe4613d146103b1578063fc0c546a146103dc57610109565b80639106d7ba1461029957806391d14854146102c4578063a217fddf14610301578063c0a398c11461032c57610109565b806332cb6b0c116100dc57806332cb6b0c146101dc57806334fcf4371461020757806336568abe146102305780633ccfd60b146102595780637cb9cf541461027057610109565b806301ffc9a71461010e578063248a9ca31461014b5780632c4e722e146101885780632f2ff15d146101b3575b600080fd5b34801561011a57600080fd5b5061013560048036038101906101309190610f36565b610407565b6040516101429190610f7e565b60405180910390f35b34801561015757600080fd5b50610172600480360381019061016d9190610fcf565b610481565b60405161017f919061100b565b60405180910390f35b34801561019457600080fd5b5061019d6104a0565b6040516101aa919061103f565b60405180910390f35b3480156101bf57600080fd5b506101da60048036038101906101d591906110b8565b6104a6565b005b3480156101e857600080fd5b506101f16104c8565b6040516101fe919061103f565b60405180910390f35b34801561021357600080fd5b5061022e60048036038101906102299190611124565b6104d6565b005b34801561023c57600080fd5b50610257600480360381019061025291906110b8565b610568565b005b34801561026557600080fd5b5061026e6105e3565b005b34801561027c57600080fd5b5061029760048036038101906102929190611151565b610683565b005b3480156102a557600080fd5b506102ae6106bf565b6040516102bb919061103f565b60405180910390f35b3480156102d057600080fd5b506102eb60048036038101906102e691906110b8565b6106c5565b6040516102f89190610f7e565b60405180910390f35b34801561030d57600080fd5b5061031661072f565b604051610323919061100b565b60405180910390f35b34801561033857600080fd5b50610353600480360381019061034e9190611124565b610736565b005b61035d61089f565b005b34801561036b57600080fd5b50610386600480360381019061038191906110b8565b610b77565b005b34801561039457600080fd5b506103af60048036038101906103aa9190611151565b610b99565b005b3480156103bd57600080fd5b506103c6610bd5565b6040516103d3919061100b565b60405180910390f35b3480156103e857600080fd5b506103f1610bf9565b6040516103fe91906111dd565b60405180910390f35b60007f7965db0b000000000000000000000000000000000000000000000000000000007bffffffffffffffffffffffffffffffffffffffffffffffffffffffff1916827bffffffffffffffffffffffffffffffffffffffffffffffffffffffff1916148061047a575061047982610c1f565b5b9050919050565b6000806000838152602001908152602001600020600101549050919050565b60025481565b6104af82610481565b6104b881610c89565b6104c28383610c9d565b50505050565b69021e19e0c9bab240000081565b6000801b6104e381610c89565b60008211610526576040517f08c379a000000000000000000000000000000000000000000000000000000000815260040161051d90611255565b60405180910390fd5b816002819055507fe65c987b2e4668e09ba867026921588005b2b2063607a1e7e7d91683c8f91b7b8260405161055c919061103f565b60405180910390a15050565b610570610d8e565b73ffffffffffffffffffffffffffffffffffffffff168173ffffffffffffffffffffffffffffffffffffffff16146105d4576040517f6697b23200000000000000000000000000000000000000000000000000000000815260040160405180910390fd5b6105de8282610d96565b505050565b6000801b6105f081610c89565b600047905060008111610638576040517f08c379a000000000000000000000000000000000000000000000000000000000815260040161062f906112c1565b60405180910390fd5b3373ffffffffffffffffffffffffffffffffffffffff166108fc829081150290604051600060405180830381858888f1935050505015801561067e573d6000803e3d6000fd5b505050565b6000801b61069081610c89565b6106ba7f43f25613eb2f15fb17222a5d424ca2655743e71265d98e4b93c05e5fb589ecde83610d96565b505050565b60035481565b600080600084815260200190815260200160002060000160008373ffffffffffffffffffffffffffffffffffffffff1673ffffffffffffffffffffffffffffffffffffffff16815260200190815260200160002060009054906101000a900460ff16905092915050565b6000801b81565b7f43f25613eb2f15fb17222a5d424ca2655743e71265d98e4b93c05e5fb589ecde61076081610c89565b69021e19e0c9bab2400000826003546107799190611310565b11156107ba576040517f08c379a00000000000000000000000000000000000000000000000000000000081526004016107b190611390565b60405180910390fd5b600160009054906101000a900473ffffffffffffffffffffffffffffffffffffffff1673ffffffffffffffffffffffffffffffffffffffff166323b872dd3330856040518463ffffffff1660e01b8152600401610819939291906113bf565b6020604051808303816000875af1158015610838573d6000803e3d6000fd5b505050506040513d601f19601f8201168201806040525081019061085c9190611422565b61089b576040517f08c379a00000000000000000000000000000000000000000000000000000000081526004016108929061149b565b60405180910390fd5b5050565b600034116108e2576040517f08c379a00000000000000000000000000000000000000000000000000000000081526004016108d990611507565b60405180910390fd5b6000600254346108f29190611527565b905069021e19e0c9bab24000008160035461090d9190611310565b111561094e576040517f08c379a000000000000000000000000000000000000000000000000000000000815260040161094590611390565b60405180910390fd5b80600160009054906101000a900473ffffffffffffffffffffffffffffffffffffffff1673ffffffffffffffffffffffffffffffffffffffff166370a08231306040518263ffffffff1660e01b81526004016109aa9190611569565b602060405180830381865afa1580156109c7573d6000803e3d6000fd5b505050506040513d601f19601f820116820180604052508101906109eb9190611599565b1015610a2c576040517f08c379a0000000000000000000000000000000000000000000000000000000008152600401610a2390611612565b60405180910390fd5b8060036000828254610a3e9190611310565b92505081905550600160009054906101000a900473ffffffffffffffffffffffffffffffffffffffff1673ffffffffffffffffffffffffffffffffffffffff1663a9059cbb33836040518363ffffffff1660e01b8152600401610aa2929190611632565b6020604051808303816000875af1158015610ac1573d6000803e3d6000fd5b505050506040513d601f19601f82011682018060405250810190610ae59190611422565b610b24576040517f08c379a0000000000000000000000000000000000000000000000000000000008152600401610b1b9061149b565b60405180910390fd5b3373ffffffffffffffffffffffffffffffffffffffff167f8fafebcaf9d154343dad25669bfa277f4fbacd7ac6b0c4fed522580e040a0f333483604051610b6c92919061165b565b60405180910390a250565b610b8082610481565b610b8981610c89565b610b938383610d96565b50505050565b6000801b610ba681610c89565b610bd07f43f25613eb2f15fb17222a5d424ca2655743e71265d98e4b93c05e5fb589ecde83610c9d565b505050565b7f43f25613eb2f15fb17222a5d424ca2655743e71265d98e4b93c05e5fb589ecde81565b600160009054906101000a900473ffffffffffffffffffffffffffffffffffffffff1681565b60007f01ffc9a7000000000000000000000000000000000000000000000000000000007bffffffffffffffffffffffffffffffffffffffffffffffffffffffff1916827bffffffffffffffffffffffffffffffffffffffffffffffffffffffff1916149050919050565b610c9a81610c95610d8e565b610e88565b50565b6000610ca983836106c5565b610d8357600160008085815260200190815260200160002060000160008473ffffffffffffffffffffffffffffffffffffffff1673ffffffffffffffffffffffffffffffffffffffff16815260200190815260200160002060006101000a81548160ff021916908315150217905550610d20610d8e565b73ffffffffffffffffffffffffffffffffffffffff168273ffffffffffffffffffffffffffffffffffffffff16847f2f8788117e7eff1d82e926ec794901d17c78024a50270940304540a733656f0d60405160405180910390a460019050610d88565b600090505b92915050565b600033905090565b6000610da283836106c5565b15610e7d57600080600085815260200190815260200160002060000160008473ffffffffffffffffffffffffffffffffffffffff1673ffffffffffffffffffffffffffffffffffffffff16815260200190815260200160002060006101000a81548160ff021916908315150217905550610e1a610d8e565b73ffffffffffffffffffffffffffffffffffffffff168273ffffffffffffffffffffffffffffffffffffffff16847ff6391f5c32d9c69d2a47ea670b442974b53935d1edc7fd64eb21e047a839171b60405160405180910390a460019050610e82565b600090505b92915050565b610e9282826106c5565b610ed55780826040517fe2517d3f000000000000000000000000000000000000000000000000000000008152600401610ecc929190611684565b60405180910390fd5b5050565b600080fd5b60007fffffffff0000000000000000000000000000000000000000000000000000000082169050919050565b610f1381610ede565b8114610f1e57600080fd5b50565b600081359050610f3081610f0a565b92915050565b600060208284031215610f4c57610f4b610ed9565b5b6000610f5a84828501610f21565b91505092915050565b60008115159050919050565b610f7881610f63565b82525050565b6000602082019050610f936000830184610f6f565b92915050565b6000819050919050565b610fac81610f99565b8114610fb757600080fd5b50565b600081359050610fc981610fa3565b92915050565b600060208284031215610fe557610fe4610ed9565b5b6000610ff384828501610fba565b91505092915050565b61100581610f99565b82525050565b60006020820190506110206000830184610ffc565b92915050565b6000819050919050565b61103981611026565b82525050565b60006020820190506110546000830184611030565b92915050565b600073ffffffffffffffffffffffffffffffffffffffff82169050919050565b60006110858261105a565b9050919050565b6110958161107a565b81146110a057600080fd5b50565b6000813590506110b28161108c565b92915050565b600080604083850312156110cf576110ce610ed9565b5b60006110dd85828601610fba565b92505060206110ee858286016110a3565b9150509250929050565b61110181611026565b811461110c57600080fd5b50565b60008135905061111e816110f8565b92915050565b60006020828403121561113a57611139610ed9565b5b60006111488482850161110f565b91505092915050565b60006020828403121561116757611166610ed9565b5b6000611175848285016110a3565b91505092915050565b6000819050919050565b60006111a361119e6111998461105a565b61117e565b61105a565b9050919050565b60006111b582611188565b9050919050565b60006111c7826111aa565b9050919050565b6111d7816111bc565b82525050565b60006020820190506111f260008301846111ce565b92915050565b600082825260208201905092915050565b7f52617465206d75737420626520706f7369746976650000000000000000000000600082015250565b600061123f6015836111f8565b915061124a82611209565b602082019050919050565b6000602082019050818103600083015261126e81611232565b9050919050565b7f4e6f2045544820746f2077697468647261770000000000000000000000000000600082015250565b60006112ab6012836111f8565b91506112b682611275565b602082019050919050565b600060208201905081810360008301526112da8161129e565b9050919050565b7f4e487b7100000000000000000000000000000000000000000000000000000000600052601160045260246000fd5b600061131b82611026565b915061132683611026565b925082820190508082111561133e5761133d6112e1565b5b92915050565b7f45786365656473206d617820737570706c790000000000000000000000000000600082015250565b600061137a6012836111f8565b915061138582611344565b602082019050919050565b600060208201905081810360008301526113a98161136d565b9050919050565b6113b98161107a565b82525050565b60006060820190506113d460008301866113b0565b6113e160208301856113b0565b6113ee6040830184611030565b949350505050565b6113ff81610f63565b811461140a57600080fd5b50565b60008151905061141c816113f6565b92915050565b60006020828403121561143857611437610ed9565b5b60006114468482850161140d565b91505092915050565b7f5472616e73666572206661696c65640000000000000000000000000000000000600082015250565b6000611485600f836111f8565b91506114908261144f565b602082019050919050565b600060208201905081810360008301526114b481611478565b9050919050565b7f4d7573742073656e642045544800000000000000000000000000000000000000600082015250565b60006114f1600d836111f8565b91506114fc826114bb565b602082019050919050565b60006020820190508181036000830152611520816114e4565b9050919050565b600061153282611026565b915061153d83611026565b925082820261154b81611026565b91508282048414831517611562576115616112e1565b5b5092915050565b600060208201905061157e60008301846113b0565b92915050565b600081519050611593816110f8565b92915050565b6000602082840312156115af576115ae610ed9565b5b60006115bd84828501611584565b91505092915050565b7f496e73756666696369656e7420746f6b656e7300000000000000000000000000600082015250565b60006115fc6013836111f8565b9150611607826115c6565b602082019050919050565b6000602082019050818103600083015261162b816115ef565b9050919050565b600060408201905061164760008301856113b0565b6116546020830184611030565b9392505050565b60006040820190506116706000830185611030565b61167d6020830184611030565b9392505050565b600060408201905061169960008301856113b0565b6116a66020830184610ffc565b939250505056fea2646970667358221220c1ee2c371307a344cbf029ba2bb6de2980625db60b4706c2ac4f782f190bdc4e64736f6c634300081c0033",
  "linkReferences": {},
  "deployedLinkReferences": {}
}